:100000000C9435000C945D000C945D000C945D0024
:100010000C945D000C945D000C945D000C945D00EC
:100020000C945D000C945D000C945D000C94340104
:100030000C945D000C945D000C945D000C945D00CC
:100040000C945D000C945D000C94E5030C94390451
:100050000C945D000C9411020C945D000C945D00F6
:100060000C945D000C945D00760C11241FBECFEF44
:10007000D8E0DEBFCDBF11E0A0E0B1E0EAE5FAE1F3
:1000800002C005900D92A434B107D9F722E0A4E490
:10009000B1E001C01D92AA31B207E1F710E0CAE653
:1000A000D0E004C02297FE010E94180DC836D10787
:1000B000C9F70E94710C0C942B0D0C94000083EF77
:1000C0008093B00084BD82E08093B10085BD109222
:1000D000B4001092B30018BC17BC8AB188668AB904
:1000E000239A5D985E985B982B98089514BC1092A3
:1000F000B00015BC1092B100089597FF05C091950E
:100100008195910921E001C020E08F3F910519F010
:1001100014F08FEF90E0222319F018BC87BD0895EA
:1001200088BD17BC089597FF05C0919581959109E9
:1001300021E001C020E08F3F910519F014F08FEF0E
:1001400090E0222329F01092B4008093B300089528
:100150008093B4001092B300089520910B012223E4
:1001600041F0909306028093050281E08093FE01A6
:1001700008950C94930020910B01222341F0909359
:1001800004028093030281E08093FD0108950C94A2
:100190007D00882319F0CB010C949300CB010C94C3
:1001A0007D008AE08093810010928B0010928A007B
:1001B000229A2A9808951092F9011092F801E0E825
:1001C000F0E080818F7E808310928B0010928A00F5
:1001D000089595B1282F217030E0220F331F482F4A
:1001E000467068E0469FA0011124242B9D7C292B9A
:1001F00025B99BB188708295807F9F77892B8BB9B9
:100200005C9A81E090E00E94A80A5C9881E090E00E
:100210000C94A80AF8946091EC017091ED01809122
:10022000EE019091EF0178940895F8941092EC010A
:100230001092ED011092EE011092EF017894089562
:100240008AE08093810084E08093890082EE80932D
:100250008800EFE6F0E0808182608083089510924C
:1002600080001092810008951F920F920FB60F9296
:1002700011240F931F932F933F934F935F936F938B
:100280007F938F939F93AF93BF93CF93DF93EF931E
:10029000FF938091EC019091ED01A091EE01B0915E
:1002A000EF010196A11DB11D8093EC019093ED012A
:1002B000A093EE01B093EF018091F901882379F1C9
:1002C0008091F6019091F7018F3F2FEF920739F15E
:1002D00001979093F7018093F601892B01F58091A6
:1002E000F801882309F472C08091F4019091F5011E
:1002F000009711F48FEF9FEF9093F7018093F60131
:10030000809180008F7E8093800010928B001092ED
:100310008A008091F80191E089278093F80180910B
:10032000FC01811169C081E08093FC01C0E0D0E054
:100330008C2F9E0123503E4FF90190819923F1F1BA
:10034000AE01440F551FDA01AD5FBD4F0D911C91F9
:100350001197FA01E150FE4F60817181061717076E
:1003600019F4F90110822AC06D917C9120813181AC
:10037000E1E090E06217730709F4E0E02E2F392FD7
:10038000FA01ED5FFD4F0190F081E02DDA01A150FF
:10039000BE4F6D917C91E617F7071CF431952195BE
:1003A0003109FA01E150FE4F40815181420F531F44
:1003B00051834083608171810E94C9002196C230BF
:1003C000D10509F0B5CF1092FC0116C08091F20161
:1003D0009091F3019093F7018093F6018091800052
:1003E0008061809380008091F10180938B008091E7
:1003F000F00180938A008DCFFF91EF91DF91CF9133
:10040000BF91AF919F918F917F916F915F914F912C
:100410003F912F911F910F910F900FBE0F901F9042
:1004200018951F920F920FB60F9211242F933F939E
:100430004F935F936F937F938F939F93AF93BF93EC
:10044000EF93FF9380910D02882371F180917800E2
:100450002091790090E0922BE0910C0221E02E0F88
:1004600020930C02F0E0EE0FFF1FE252FE4F91834B
:100470008083273081F410920C022091FA0122230C
:1004800031F08F3822E0920710F060E02DC020910B
:10049000FA01222329F1E0910C02F0E0E85EFE4F20
:1004A0008081806480937C0080910D0291E0892797
:1004B00080930D0280917A00806480937A00FF918E
:1004C000EF91BF91AF919F918F917F916F915F91CC
:1004D0004F913F912F910F900FBE0F901F90189545
:1004E0008E389240C0F661E080EF91E00E94720A7F
:1004F000D2CF80E090E040E054E09C01220F331F17
:10050000F901E653FE4F11821082F901EC52FE4FC1
:100510005183408301968530910579F70895CF92F4
:10052000DF92EF92FF920F931F93CF93DF93CDB79C
:10053000DEB764970FB6F894DEBF0FBECDBFD12CE7
:10054000FE013B967F018E010F5F1F4FC12C60E0C3
:100550008C2D0E94BE0ADD2069F0F70120813181D7
:10056000281739073CF0F801208131818217930761
:1005700034F008C0F70191838083D110F4CFF801E3
:1005800091838083C3940E5F1F4FF2E0EF0EF11C46
:1005900085E0C812DCCFD3949AE0D912D1CFCE0136
:1005A0000B967C01DE01119680E090E06D917D91CB
:1005B0009C01220F331FA90146535E4FFA010081AF
:1005C00011810617170714F471836083F7014191B5
:1005D00051917F012C523E4FF90160817181461784
:1005E000570714F451834083019685309105F1F645
:1005F00064960FB6F894DEBF0FBECDBFDF91CF91EA
:100600001F910F91FF90EF90DF90CF900895CF93BF
:100610000E947902CCEEC83228F068ED7FEF88E2C4
:1006200090E004C068E270E088ED9FEF0E94680AE5
:100630000E948F0284E190E00E94B00ACF5FCC3329
:1006400051F760E070E080E090E0CF910C94680A90
:100650002F923F924F925F926F927F928F929F92D2
:10066000AF92BF92CF92DF92EF92FF920F931F93C0
:10067000CF93DF931F92CDB7DEB78C01262E009764
:1006800019F48E010F5F1F4FD8011C92412C512C81
:100690003201A12CB12CC12CD12C7601312C812C12
:1006A00084E0982E61E0832D0E94BE0AFC01222086
:1006B00021F0C4018E1B9F0BFC01E93CF10524F0E5
:1006C00081E0D8018C9303C0E333F1055CF0DF01D6
:1006D000A30192010E940E0DC60ED71EE81EF91E40
:1006E000AE0EBF1E3394B4E05B0E611C711CE5E0DE
:1006F0003E12D8CFD8018C9181110AC080910A0294
:1007000090910B028115984084F480E090E00FC036
:10071000950140E050E0C701B6010E94BB0C309348
:100720000B0220930A02C90102C080E090E10F9001
:10073000DF91CF911F910F91FF90EF90DF90CF90BD
:10074000BF90AF909F908F907F906F905F904F90F1
:100750003F902F9008958FE380937E008FED8093DC
:100760007A0010927B0080E480937C0088B18F63D4
:1007700088B980E094E09093DF018093DE0190934C
:10078000E1018093E0019093E3018093E201909373
:10079000E5018093E4019093E7018093E601909353
:1007A000E9018093E8019093EB018093EA010C94B6
:1007B000790210927A00089589EC91E00C94670B0D
:1007C00061E089EC91E00C94630B1F920F920FB6DD
:1007D0000F9211242F933F934F935F936F937F93C7
:1007E0008F939F93AF93BF93EF93FF939091C60026
:1007F00080910902E82FF0E0EC5EFE4F2081921319
:1008000014C08F5F80930902843089F40E947600BF
:1008100061E089EC91E00E94630BF89488E1809399
:10082000600088E080936000FFCF10920902E091A1
:10083000660181E08E0F803209F480E0209165012D
:10084000821731F0F0E0EB5BFE4F908380936601FE
:10085000FF91EF91BF91AF919F918F917F916F9198
:100860005F914F913F912F910F900FBE0F901F906E
:1008700018951F920F920FB60F9211248F939F938A
:10088000EF93FF939091C7018091C801981789F069
:10089000E091C701F0E0E959FE4F90818091C701D6
:1008A0008F5F803609F480E08093C7019093C60083
:1008B00005C08091C1008F7D8093C100FF91EF91B1
:1008C0009F918F910F900FBE0F901F90189584B13C
:1008D0008D7C84B985B1826385B9089585B18D7C9D
:1008E00085B908950E9420010E94D1000E945F00F6
:1008F0000E94AB030E94DC0382E08093C00086E08C
:100900008093C2001092C50085E18093C40088E9FD
:100910008093C1000C9467040E942F010E94DB00A9
:100920000E94760010927A000E94E0031092C100AB
:100930001092C0001092C2000C946E040F931F938B
:10094000CF93DF93E0914401F0E0EE0FFF1FE45FEF
:10095000FE4F0081118160EC89EC91E00E94630BF5
:10096000E8016991662339F022E041E089EC91E0E9
:100970000E94270BF6CFDF91CF911F910F91089521
:1009800080914401833009F057C00E940A012091F0
:100990000101309102012A3F3105A1F460327E4409
:1009A0008105910508F448C00E94150187EF9FEF6B
:1009B00090930F0280930E028091010190910201A9
:1009C000099736C02A35310599F4603A7648814056
:1009D000910590F10E94150189E190E090930F023A
:1009E00080930E028091010190910201499620C0EE
:1009F000683C710581059105F8F00E941501809110
:100A000001019091020120910E0230910F02820F9C
:100A1000931F8A3591051CF48AE590E009C09093F4
:100A20000201809301018B3F910534F08AEF90E041
:100A3000909302018093010108956F927F929F929B
:100A4000AF92BF92CF92DF92EF92FF920F931F93DC
:100A5000CF93DF9300D0CDB7DEB78C01612C712C22
:100A600020E0C12CD12C760148EF942E44E0F30114
:100A7000EE0FFF1F4615B0F0EC52FE4F80819181C2
:100A80009770AA2797FDA095BA2F022E04C0880F51
:100A9000991FAA1FBB1F0A94D2F7C82AD92AEA2A8B
:100AA000FB2A15C0E054FE4F4081518157706627E4
:100AB00057FD6095762F022E04C0440F551F661F08
:100AC000771F0A94D2F7C42AD52AE62AF72A3BE0F0
:100AD000320FC8015C01EFEFAE1ABE0A6C2D2A83FB
:100AE00039830E94AD0BCD2CDE2CEF2CFF24E7FCCC
:100AF000FA94398138502A81383010F0C501EACF94
:100B00002D5F322F369536953695832F90E00196DE
:100B1000080F191F399D200D1124FFEF6F1A7F0A4E
:100B20004AE06416710409F0A1CF222399F06C2DDC
:100B3000C8010F900F90DF91CF911F910F91FF90FF
:100B4000EF90DF90CF90BF90AF909F907F906F908D
:100B50000C94AD0B0F900F90DF91CF911F910F91DF
:100B6000FF90EF90DF90CF90BF90AF909F907F90DD
:100B70006F9008950E94070381E0809319026AE252
:100B800081E090E00E94AD0B82E090E00C941D05A6
:100B9000809100018823F9F084E690E00E94B00A79
:100BA00080911902811102C00E94BA0510920001C1
:100BB000109218021092170210921302109214024F
:100BC0001092150210921602109211021092100249
:100BD0000E94150109C081E08093000160E070E08F
:100BE00080E090E00E94680A8091000180930B01F0
:100BF0000895CF93DF93EC018981823059F18430DD
:100C000069F18130D9F5CE010E94160A80930A015C
:100C1000CE010E94160A80930901CE010E941F0A8C
:100C20009093080180930701CE010E941F0A9093C0
:100C3000060180930501CE010E941F0A90930401D2
:100C400080930301CE010E941F0A909302018093BA
:100C5000010114C0DF91CF910C94C805809100016F
:100C6000882361F0CE010E941F0A0E94AD00CE01D0
:100C70000E941F0ADF91CF910C94BB00DF91CF91AE
:100C8000089580914401813089F068F08230A9F0A4
:100C90008330B1F48AEF90E09093020180930101D8
:100CA0000E94150111C08FEF90E002C08CE890E027
:100CB000909302018093010107C080E590E0F8CF96
:100CC000109244010E9441066091440180E090E04E
:100CD0000E94AD0B0C949E04809144018F5F843080
:100CE00018F48093440102C0109244010C94410610
:100CF000CF92DF92EF92FF920F931F93CF93DF93E8
:100D000000E010E0C12CD12C7601EC0121960E946C
:100D1000BA0B90E0A0E0B0E0012E04C0880F991F4C
:100D2000AA1FBB1F0A94D2F7C82AD92AEA2AFB2A8B
:100D3000185F1B30C8F0E02FF0E0C6019770EE0F8F
:100D4000FF1F053018F4EC52FE4F02C0E054FE4F76
:100D5000918380835BE0F594E794D794C7945A9588
:100D6000D1F71B500F5FE5CF0A3010F4CE01CDCF85
:100D7000DF91CF911F910F91FF90EF90DF90CF9077
:100D8000089580E090E00E94BA0B843018F48093BC
:100D9000440102C01092440181E090E00E94BA0B2D
:100DA0008A3239F482E090E00E94780681E08093F4
:100DB000190208951F93CF93DF93EC016FEF85E441
:100DC00091E00E945A0C60E085E491E00E945A0C88
:100DD00068816F5F85E491E00E945A0C698185E427
:100DE00091E00E945A0C10E08881181750F4FE011F
:100DF000E10FF11D628185E491E00E945A0C1F5FB2
:100E0000F3CFDF91CF911F910895EF92FF920F934F
:100E10001F93CF93DF93CDB7DEB7A6970FB6F894A5
:100E2000DEBF0FBECDBF9E8F8D8F78A36F8FFAA2CE
:100E3000E9A260E0CE0101962BA33CA34DA35EA3E3
:100E40000E949709BE01635E7F4FCE0101960E940A
:100E5000D309BE01615E7F4FCE0101960E94D30986
:100E60002BA13CA14DA15EA1298F3A8F4B8F5C8FA6
:100E7000BE01675E7F4FCE0101960E94EA091A8F7C
:100E8000098FBE01675E7F4FCE0101960E94D30994
:100E9000BE016F5D7F4FCE0101960E94D309CE0146
:100EA00001960E94DA06A6960FB6F894DEBF0FBE32
:100EB000CDBFDF91CF911F910F91FF90EF900895DB
:100EC0006F927F928F929F92AF92BF92CF92DF925A
:100ED000EF92FF920F931F93CF93DF93CDB7DEB7BF
:100EE000A0970FB6F894DEBF0FBECDBF60E082E1E1
:100EF00092E00E9428037C01809112028111B9C006
:100F00008091100290911102009741F420911702F4
:100F100030911802309308022093070201969093B3
:100F20001102809310028039914008F4A6C06091AC
:100F300007027091080240E085E491E00E94DB0B1B
:100F400060E285E491E00E945A0C40E0B70185E43C
:100F500091E00E94DB0B60E285E491E00E945A0C74
:100F6000C0901302D0901402E0901502F090160287
:100F7000C114D104E104F10409F441C0B701A60190
:100F8000F7FE07C044275527BA014C195D096E09C1
:100F90007F09142FE52FCB01712CBAE08B2E912CF9
:100FA000A12CB12C06EF602E612F7E2FA50194019C
:100FB0000E94DD0C01E0070D105D629E100D1124F2
:100FC000E1E0F0E0EC0FFD1FE70DF11D10832115AE
:100FD00031054105510529F0702E122FE32FCA016A
:100FE000E3CF802FF7FE0EC002E0070DE1E0F0E056
:100FF000EC0FFD1FE80FF11D8DE2808303C080E33D
:10100000898301E0002351F0FE01E00FF11D6081B2
:1010100087E691E00E94C30B0150F4CF8091C1009C
:1010200080628093C10060E285E491E00E945A0CE6
:101030006AE085E491E00E945A0C60E070E080E094
:1010400090E00E94680AA0960FB6F894DEBF0FBE2B
:10105000CDBFDF91CF911F910F91FF90EF90DF9067
:10106000CF90BF90AF909F908F907F906F900C9497
:10107000C805109211021092100281E0E8168CE06F
:10108000F8063CF4E11424E0F20634F080E098E045
:1010900005C080E094E002C080E09CE0E81AF90A14
:1010A00080911702909118026701C81AD90AB701F6
:1010B000882777FD8095982F8090130290901402D6
:1010C000A0901502B0901602680D791D8A1D9B1D17
:1010D000609313027093140280931502909316028A
:1010E0002091070130910801442737FD4095542F86
:1010F0000E94DD0C49015A01209105013091060141
:10110000C29EC001C39E900DD29E900D112460918D
:101110000301709104010E94A70C9B01280D391D49
:1011200040910A014E9DC0014F9D900D1124609188
:10113000090170E00E94A70C260F371F8091010162
:1011400090910201821793074CF044275527481BC2
:10115000590B241735071CF49A0101C09C01BC01EE
:1011600037FF03C0820F931F02C0621B730B0E94E4
:10117000680AF0921802E0921702A0960FB6F8944F
:10118000DEBF0FBECDBFDF91CF911F910F91FF90BA
:10119000EF90DF90CF90BF90AF909F908F907F9017
:1011A0006F900895CF93DF93CDB7DEB7EA970FB670
:1011B000F894DEBF0FBECDBF0E94C10660E085E09F
:1011C0000E94BE0A28E833E1DC010E94FC0C615059
:1011D0007E4F8F4F9F4F2FEF33E040E050E00E9453
:1011E000BB0CA3E0B0E00E94030D6F5F7F4F8F4FF9
:1011F0009F4F9695879577956795AB0164E889EC45
:1012000091E049AF5AAF0E94630B49AD5AAD411509
:101210005105E1F0E0E02AE030E0CA01B9010E94A6
:10122000930C11E01E0F81E090E08C0F9D1F8E0F3C
:10123000911DFC01405D9AE0699F40191124408393
:101240006115710531F0E12FAB01E7CF80E38983B0
:1012500011E0112361F0FE01E10FF11D22E041E0F8
:10126000608189EC91E00E94270B1150F2CF0E941F
:101270004106CE0181960E949109CE0101960E94FD
:1012800091099091650180916601981731F1E09183
:101290006501F0E0EB5BFE4F6081809165018F5F3F
:1012A000803209F480E080936501CE0181960E942E
:1012B000A30989A1882329F390E003962FA930E0A0
:1012C00082179307F1F6CE0181960E94F90560E03E
:1012D000CE0181960E949D09D4CF199905C082E064
:1012E0000E94A70B0E946C061C9906C080E10E9418
:1012F000A70B0E94C805C5CF80910001882361F02B
:101300001D99BFCF80E20E94A70B8CE291E00E9462
:10131000B00A0E94BA05B5CF0E94C0040E946007BF
:10132000B0CFFC0111821082178A168A0895FC0141
:101330001082178A168A61830895FC0161831082E6
:10134000178A168A0895FC0146894130D1F030F0A1
:10135000423039F0433039F4618313C06F3FA9F450
:1013600010C060830EC0A42FB0E09D01225031094F
:10137000808190E08217930744F0AE0FBF1F129751
:101380006C934F5F468B81E0089580E00895FC01E7
:10139000208131E0320F3083FB013081FC01E20F0C
:1013A000F11D32830895CF93DF93FC01808191E09A
:1013B000980F9083DF01A80FB11DEB0129811296D0
:1013C0002C938E5F8083E90FF11D88818283DF91EA
:1013D000CF910895CF93DF93FC01DB01808191E0F1
:1013E000980F9083EF01C80FD11D13962C9113977E
:1013F0002A8322E0280F2083EF01C90FD11D129606
:101400009C9112979A8393E0980F9083EF01C20FFB
:10141000D11D11962C9111972A838C5F8083E90F3F
:10142000F11D8C918283DF91CF910895FC01278972
:1014300031E0320F378BE20FF11D82810895FC01FC
:101440002789DC01A20FB11D12968C9190E0982F94
:10145000882732E0320F378B2F5FE20FF11D228198
:10146000822B08950F931F93FC014789DC01A40F81
:10147000B11D12966C91862F90E0A0E0B0E0982FFD
:1014800088277727662721E0240FDF01A20FB11DEF
:1014900012965C9122E0240FDF01A20FB11D12967B
:1014A0000C9110E0102F0027222717FD2095322FD6
:1014B000A4E0A40FA78B4D5FE40FF11D4281642BC4
:1014C000852B602B712B822B932B1F910F910895ED
:1014D000CF93DF93EB010E94BB00CE01DF91CF9150
:1014E0000C94AD00FC018385882389F182858613E5
:1014F00001C0089562876623F1F0108688EE93E0BC
:101500009383828324EF31E03583248320813181EA
:10151000232BE9F021E02187208797838683809120
:101520008000806180938000818180938B00808126
:1015300080938A00089511861086809180008F7EA6
:101540008093800010928B0010928A000895089575
:101550006F9364E06A95F1F76F910197C9F7089569
:10156000CF93DF93EC01209731F088EE93E00E9457
:10157000A80A2197F8CFDF91CF910895F89490E0D1
:10158000880F991FFC01E252FE4F20813181211505
:10159000344021F478940000F894F7CF2081318111
:1015A00078940000662339F1FC01E653FE4F408138
:1015B0005181FC01EC52FE4F80819181481B590BF7
:1015C00081F080819181D901A81BB90B28EE33E00D
:1015D0000E94FC0C9A01442737FD4095542F0E942D
:1015E000DD0C213084E0380714F020E034E037FFD0
:1015F00002C020E030E0C90108950F931F93CF93FC
:10160000DF931AB157985A98289AC4ECD9E081E030
:1016100090E00E94A80A5C9A81E090E00E94A80AEB
:1016200009B15C9881E090E00E94A80A5C9A81E090
:1016300090E00E94A80A5C9807FF03C021972097BA
:1016400031F71AB9DF91CF911F910F910895DF9271
:10165000EF92FF920F931F93CF93DF9300D0CDB7FC
:10166000DEB7E62E2A8349830E94FD0A14B1D5B065
:10167000FAB00BB1289849812A81442311F05A9A73
:1016800001C05A9894B1926394B9579A213029F0C5
:101690008E2D82958F700E94E9008E2D8F700E9492
:1016A000E900FAB80BB914B9D5B80F900F90DF91D3
:1016B000CF911F910F91FF90EF90DF90089521E05F
:1016C00040E00C94270B22E040E00C94270BCF93D2
:1016D000DF93EC01529A209A549A8EE190E00E9496
:1016E000B00A63E0CE010E945F0B86E090E00E94AA
:1016F000B00A63E0CE010E945F0B82E090E00E949E
:10170000B00A63E0CE010E945F0B82E090E00E948D
:10171000B00A62E0CE010E945F0B82E090E00E947E
:10172000B00A68E2CE010E94630B68E0CE010E941D
:10173000630B61E0CE010E94630B66E0CE010E9464
:10174000630B6CE0CE01DF91CF910C94630B93B1EE
:101750009823E9F393B18923089592BD81BD60BDBB
:1017600084E08FBB82E08FBBF999FECF81B58F5F9C
:1017700081BD089592BD81BD81E08FBB80B591B5DB
:101780009F5F91BD0895FC01EF59FF4F308121E02B
:10179000230F203609F420E0DC01A05ABF4F4C9102
:1017A000241739F0DC01A30FB11D6C93208381E075
:1017B000089580E00895CF92DF92EF92FF920F9309
:1017C0001F93CF93DF93CDB7DEB7A1970FB6F894F1
:1017D000DEBF0FBECDBF8C019B0161157105D1F13C
:1017E00037FF04C066277727621B730BE62E972FFF
:1017F000F12CEAE0F0E0A6EFCA2E8E2DBF010E9488
:10180000A70CDD24D394DF0C80E38E0DC69E800DE3
:101810001124A1E0B0E0AC0FBD1FAF0DB11D8C9342
:101820006115710521F0E62E972FFD2CE6CF8D2D49
:1018300037FF0BC072E0D72EDF0CE1E0F0E0EC0FD9
:10184000FD1FE80FF11D8DE28083780182E2E80E32
:10185000F11C05C080E38983DD24D394F6CFD41630
:1018600040F460E2C70149A30E94C30B49A1415063
:10187000F6CF0E5D1F4FDD2049F0FE01ED0DF11D8D
:101880006081C8010E94C30BDA94F5CF8091C1003A
:1018900080628093C100A1960FB6F894DEBF0FBEA0
:1018A000CDBFDF91CF911F910F91FF90EF90DF900F
:1018B000CF900895DC01AD57BF4FFC01EE57FF4FAD
:1018C0002C912F5F203609F420E030812317C1F3DB
:1018D00082960E94C30B8091C10080628093C100F8
:1018E00008950E94720478940E94D2081092F9011F
:1018F0001092FB011092F80182EE94E09093F101B6
:101900008093F0011092F5011092F4011092F3010E
:101910001092F20110926501109266011092C701B7
:101920001092C8010895AA1BBB1B51E107C0AA1F52
:10193000BB1FA617B70710F0A61BB70B881F991F70
:101940005A95A9F780959095BC01CD01089597FB14
:10195000072E16F4009407D077FD09D00E94930C4F
:1019600007FC05D03EF4909581959F4F08957095A2
:1019700061957F4F0895A1E21A2EAA1BBB1BFD01A2
:101980000DC0AA1FBB1FEE1FFF1FA217B307E4075E
:10199000F50720F0A21BB30BE40BF50B661F771FB6
:1019A000881F991F1A9469F7609570958095909596
:1019B0009B01AC01BD01CF010895052E97FB1EF4DC
:1019C00000940E94F40C57FD07D00E94BB0C07FC4A
:1019D00003D04EF40C94F40C50954095309521951D
:1019E0003F4F4F4F5F4F089590958095709561954B
:1019F0007F4F8F4F9F4F08950E941C0DB7FF089592
:101A0000821B930B08950E941C0DA59F900DB49FFF
:101A1000900DA49F800D911D11240895B7FF0C9483
:101A2000030D0E94030D821B930B0895EE0FFF1F01
:101A30000590F491E02D0994A29FB001B39FC001DD
:101A4000A39F700D811D1124911DB29F700D811DEA
:0A1A50001124911D0895F894FFCFB2
:101A5A0001FF0001003C00581B0502011F0128017B
:101A6A0031013A01747E7A33000102030406074603
:101A7A0061737420202020004E6F726D616C2020EB
:101A8A0000536C6F772020202000507772207361FA
:041A9A00766500006D
:00000001FF
