:100000000C9435000C945D000C945D000C945D0024
:100010000C945D000C945D000C945D000C945D00EC
:100020000C945D000C945D000C945D000C945D00DC
:100030000C945D000C945D000C945D000C945D00CC
:100040000C94F6000C945D000C94E2030C943604BE
:100050000C945D000C940E020C945D000C945D00F9
:100060000C945D000C945D00C50C11241FBECFEFF5
:10007000D8E0DEBFCDBF11E0A0E0B1E0EAE2FBE1F5
:1000800002C005900D92A434B107D9F722E0A4E490
:10009000B1E001C01D92A032B207E1F710E0CAE65C
:1000A000D0E004C02297FE010E94800DC836D1071F
:1000B000C9F70E94C00C0C94930D0C9400008AE0C8
:1000C0008093810010928B0010928A00229A2A98C5
:1000D00008951092050210920402E0E8F0E0108208
:1000E0001092810080818F7E8083089583EF8093BA
:1000F000B00084BD82E08093B10085BD1092B40051
:100100001092B30018BC17BCEEE6F0E0808181606D
:1001100080838AB188668AB9239A5D985E985B98D5
:100120002B98089514BC1092B00015BC1092B10029
:10013000089597FF05C091958195910921E001C02F
:1001400020E08F3F910519F014F08FEF90E022230B
:1001500019F018BC87BD089588BD17BC089597FF96
:1001600005C091958195910921E001C020E08F3F64
:10017000910519F014F08FEF90E0222329F01092EE
:10018000B4008093B30008958093B4001092B3003C
:1001900008959093FB018093FA0120910B01222393
:1001A00021F081E08093F30108950C94AF009093C7
:1001B000F9018093F80120910B01222321F081E0C5
:1001C0008093F20108950C949900882319F0CB01D3
:1001D0000C94AF00CB010C949900E82FF0E0EE0FE7
:1001E000FF1FE850FE4F8081918108951F920F926A
:1001F0000FB60F9211240F931F932F933F934F939A
:100200005F936F937F938F939F93AF93BF93CF939E
:10021000DF93EF93FF938091F0018F5F8093F00164
:100220008A3009F0AFC01092F0018091EC019091FA
:10023000ED01A091EE01B091EF010196A11DB11D5C
:100240008093EC019093ED01A093EE01B093EF0148
:1002500080910502882399F1809102029091030216
:100260008F3F2FEF920759F10197909303028093EC
:100270000202892B21F5809104022091FD0188233F
:1002800009F474C08091000290910102009711F46A
:100290008FEF9FEF90930302809302028091800082
:1002A0008F7E80938000209389008091FC01809351
:1002B00088008091040291E0892780930402809154
:1002C000F10181115FC081E08093F101C0E0D0E0D5
:1002D0008C2F9E012E503E4FF90190819923F1F110
:1002E000AE01440F551FDA01A850BE4F0D911C916D
:1002F0001197FA01EC50FE4F6081718106171707C4
:1003000019F4F90110822AC06D917C91208131810C
:10031000E1E090E06217730709F4E0E02E2F392F37
:10032000FA01E850FE4F0190F081E02DDA01AC5067
:10033000BE4F6D917C91E617F7071CF4319521951E
:100340003109FA01EC50FE4F40815181420F531F99
:1003500051834083608171810E94E5002196C23003
:10036000D10509F0B5CF1092F1010CC08091FE01CA
:100370009091FF019093030280930202809180008C
:1003800080618FCFFF91EF91DF91CF91BF91AF91BE
:100390009F918F917F916F915F914F913F912F919D
:1003A0001F910F910F900FBE0F901F90189595B150
:1003B000282F217030E0220F331F482F467068E04D
:1003C000469FA0011124242B9D7C292B25B99BB18C
:1003D00088708295807F9F77892B8BB95C9A81E0AA
:1003E00090E00E94F70A5C9881E090E00C94F70A94
:1003F000F8946091EC017091ED018091EE01909183
:10040000EF0178940895F8941092EC011092ED01A8
:100410001092EE011092EF01789408951F920F92BE
:100420000FB60F9211242F933F934F935F936F93C7
:100430007F938F939F93AF93BF93EF93FF9380919D
:100440000E02882371F1809178002091790090E06C
:10045000922BE0910D0221E02E0F20930D02F0E08F
:10046000EE0FFF1FE252FE4F91838083273081F40D
:1004700010920D0220910602222331F08F3822E0E3
:10048000920710F060E02DC020910602222329F18E
:10049000E0910D02F0E0E85EFE4F80818064809381
:1004A0007C0080910E0291E0892780930E0280915A
:1004B0007A00806480937A00FF91EF91BF91AF91B1
:1004C0009F918F917F916F915F914F913F912F916C
:1004D0000F900FBE0F901F9018958E389240C0F667
:1004E00061E08CEF91E00E94B60AD2CF80E090E00C
:1004F00040E054E09C01220F331FF901E653FE4F08
:1005000011821082F901EC52FE4F51834083019613
:100510008530910579F70895CF92DF92EF92FF929F
:100520000F931F93CF93DF93CDB7DEB764970FB6CA
:10053000F894DEBF0FBECDBFD12CFE013B967F01EC
:100540008E010F5F1F4FC12C60E08C2D0E940D0BA0
:10055000DD2069F0F70120813181281739073CF04F
:10056000F801208131818217930734F008C0F70128
:1005700091838083D110F4CFF80191838083C39459
:100580000E5F1F4FF2E0EF0EF11C85E0C812DCCFCA
:10059000D3949AE0D912D1CFCE010B967C01DE0123
:1005A000119680E090E06D917D919C01220F331FA8
:1005B000A90146535E4FFA01008111810617170702
:1005C00014F471836083F701419151917F012C52A2
:1005D0003E4FF901608171814617570714F451832A
:1005E0004083019685309105F1F664960FB6F89434
:1005F000DEBF0FBECDBFDF91CF911F910F91FF9056
:10060000EF90DF90CF900895CF930E947602CCEECA
:10061000C83228F068ED7FEF88E290E004C068E21D
:1006200070E088ED9FEF0E94ED0A0E948C0284E149
:1006300090E00E94FF0ACF5FCC3351F760E070E09A
:1006400080E090E0CF910C94ED0A2F923F924F9270
:100650005F926F927F928F929F92AF92BF92CF9252
:10066000DF92EF92FF920F931F93CF93DF931F922E
:10067000CDB7DEB78C01262E009719F48E010F5FDF
:100680001F4FD8011C92412C512C3201A12CB12CAE
:10069000C12CD12C7601312C812CA4E09A2E61E062
:1006A000832D0E940D0BFC01222021F0C4018E1B22
:1006B0009F0BFC01E93CF10524F081E0D8018C930B
:1006C00003C0E333F1055CF0DF01A30192010E9456
:1006D000760DC60ED71EE81EF91EAE0EBF1E339451
:1006E000B4E05B0E611C711CE5E03E12D8CFD8016E
:1006F0008C9181110AC080910B0290910C0281159E
:10070000984084F480E090E00FC0950140E050E014
:10071000C701B6010E94230D30930C0220930B02F7
:10072000C90102C080E090E10F90DF91CF911F914D
:100730000F91FF90EF90DF90CF90BF90AF909F9080
:100740008F907F906F905F904F903F902F90089583
:100750008FE380937E008FED80937A0010927B0070
:1007600080E480937C0088B18F6388B980E094E056
:100770009093DF018093DE019093E1018093E0018B
:100780009093E3018093E2019093E5018093E4016B
:100790009093E7018093E6019093E9018093E8014B
:1007A0009093EB018093EA010C94760210927A0008
:1007B000089589EC91E00C94B60B61E089EC91E02E
:1007C0000C94B20B1F920F920FB60F9211242F931D
:1007D0003F934F935F936F937F938F939F93AF93C9
:1007E000BF93EF93FF939091C60080910A02E82F88
:1007F000F0E0EC5EFE4F2081921314C08F5F809377
:100800000A02843089F40E94920061E089EC91E050
:100810000E94B20BF89488E18093600088E0809396
:100820006000FFCF10920A02E091660181E08E0F16
:10083000803209F480E020916501821731F0F0E008
:10084000EB5BFE4F908380936601FF91EF91BF9128
:10085000AF919F918F917F916F915F914F913F9158
:100860002F910F900FBE0F901F9018951F920F920F
:100870000FB60F9211248F939F93EF93FF93909154
:10088000C7018091C801981789F0E091C701F0E095
:10089000E959FE4F90818091C7018F5F803609F43E
:1008A00080E08093C7019093C60005C08091C1008D
:1008B0008F7D8093C100FF91EF919F918F910F9059
:1008C0000FBE0F901F90189584B18D7C84B985B1AF
:1008D000826385B9089585B18D7C85B908950E949C
:1008E0005F000E9476000E94A8030E94D90382E064
:1008F0008093C00086E08093C2001092C50085E11D
:100900008093C40088E98093C1000C9464040E9421
:1009100069000E94920010927A000E94DD031092FA
:10092000C1001092C0001092C2000C946B040F938F
:100930001F93CF93DF93E0914401F0E0EE0FFF1F90
:10094000E45FFE4F0081118160EC89EC91E00E9430
:10095000B20BE8016991662339F022E041E089ECAD
:1009600091E00E94760BF6CFDF91CF911F910F910E
:1009700008950F931F9380914401833009F092C032
:1009800080911102882379F00E94F80100911202EF
:10099000109113022091140230911502601B710B0B
:1009A000820B930B08C06091120270911302809128
:1009B00014029091150220910101309102012A3F09
:1009C0003105F9F460327E448105910508F46AC06E
:1009D00081E0809311020E94F801609312027093EB
:1009E0001302809314029093150287EF9FEF909368
:1009F000100280930F0280910101909102010997EA
:100A00004DC02A353105F9F4683F744281409105A3
:100A100008F448C081E0809311020E94F8016093BD
:100A2000120270931302809314029093150289E1CD
:100A300090E09093100280930F02809101019091B9
:100A4000020149962BC0683C71058105910550F162
:100A500081E0809311020E94F8016093120270936A
:100A600013028093140290931502809101019091DA
:100A7000020120910F0230911002820F931F8A35DC
:100A800091051CF48AE590E009C0909302018093DF
:100A900001018B3F910534F08AEF90E090930201C1
:100AA000809301011F910F9108956F927F929F9201
:100AB000AF92BF92CF92DF92EF92FF920F931F936C
:100AC000CF93DF9300D0CDB7DEB78C01612C712CB2
:100AD00020E0C12CD12C760138EF932E44E0F301B5
:100AE000EE0FFF1F4615B0F0EC52FE4F8081918152
:100AF0009770AA2797FDA095BA2F022E04C0880FE1
:100B0000991FAA1FBB1F0A94D2F7C82AD92AEA2A1A
:100B1000FB2A15C0E054FE4F408151815770662773
:100B200057FD6095762F022E04C0440F551F661F97
:100B3000771F0A94D2F7C42AD52AE62AF72A3BE07F
:100B4000320FC8015C01EFEFAE1ABE0A6C2D2A838A
:100B500039830E94FC0BCD2CDE2CEF2CFF24E7FC0C
:100B6000FA94398138502A81383010F0C501EACF23
:100B70002D5F322F369536953695832F90E001966E
:100B8000080F191F399D200D1124FFEF6F1A7F0ADE
:100B90004AE06416710409F0A1CF222399F06C2D6C
:100BA000C8010F900F90DF91CF911F910F91FF908F
:100BB000EF90DF90CF90BF90AF909F907F906F901D
:100BC0000C94FC0B0F900F90DF91CF911F910F9120
:100BD000FF90EF90DF90CF90BF90AF909F907F906D
:100BE0006F9008950E94040381E080931F026AE2DF
:100BF00081E090E00E94FC0B82E090E00C945505AF
:100C000080910001882351F184E690E00E94FF0A60
:100C100080911F02811102C00E94F2051092000112
:100C200010921E0210921D021092190210921A02C6
:100C300010921B0210921C021092170210921602C0
:100C400081E0809311020E94F80160931202709378
:100C50001302809314029093150209C081E08093DF
:100C6000000160E070E080E090E00E94ED0A809179
:100C7000000180930B010895CF93DF93EC018981EC
:100C8000823059F1843069F18130D9F5CE010E946A
:100C9000640A80930A01CE010E94640A80930901CC
:100CA000CE010E946D0A9093080180930701CE0146
:100CB0000E946D0A9093060180930501CE010E9467
:100CC0006D0A9093040180930301CE010E946D0A86
:100CD000909302018093010114C0DF91CF910C9495
:100CE000000680910001882361F0CE010E946D0A08
:100CF0000E94C900CE010E946D0ADF91CF910C9431
:100D0000D700DF91CF910895809144018130E1F0C7
:100D1000C0F0823001F1833009F58AEF90E09093C2
:100D200002018093010181E0809311020E94F80189
:100D30006093120270931302809314029093150231
:100D400011C08FEF90E002C08CE890E09093020118
:100D50008093010107C080E590E0F8CF1092440134
:100D60000E9484066091440180E090E00E94FC0BA8
:100D70000C949704809144018F5F843018F4809321
:100D8000440102C0109244010C948406CF92DF9279
:100D9000EF92FF920F931F93CF93DF9300E010E049
:100DA000C12CD12C7601EC0121960E94090C90E017
:100DB000A0E0B0E0012E04C0880F991FAA1FBB1F3E
:100DC0000A94D2F7C82AD92AEA2AFB2A185F1B30CC
:100DD000C8F0E02FF0E0C6019770EE0FFF1F05305E
:100DE00018F4EC52FE4F02C0E054FE4F9183808312
:100DF0004BE0F594E794D794C7944A95D1F71B50EC
:100E00000F5FE5CF0A3010F4CE01CDCFDF91CF9147
:100E10001F910F91FF90EF90DF90CF90089580E0A9
:100E200090E00E94090C843018F48093440102C0C1
:100E30001092440181E090E00E94090C8A3239F45A
:100E400082E090E00E94C60681E080931F02089530
:100E50001F93CF93DF93EC016FEF85E491E00E9445
:100E6000A90C60E085E491E00E94A90C68816F5FA5
:100E700085E491E00E94A90C698185E491E00E94DB
:100E8000A90C10E08881181750F4FE01E10FF11D44
:100E9000628185E491E00E94A90C1F5FF3CFDF918E
:100EA000CF911F910895EF92FF920F931F93CF93CD
:100EB000DF93CDB7DEB7A6970FB6F894DEBF0FBEAF
:100EC000CDBF9E8F8D8F78A36F8FFAA2E9A260E0CD
:100ED000CE0101962BA33CA34DA35EA30E94E5097E
:100EE000BE01635E7F4FCE0101960E94210ABE01C2
:100EF000615E7F4FCE0101960E94210A2BA13CA189
:100F00004DA15EA1298F3A8F4B8F5C8FBE01675E2A
:100F10007F4FCE0101960E94380A1A8F098FBE01B9
:100F2000675E7F4FCE0101960E94210ABE016F5D70
:100F30007F4FCE0101960E94210ACE0101960E94A8
:100F40002807A6960FB6F894DEBF0FBECDBFDF917F
:100F5000CF911F910F91FF90EF9008956F927F9224
:100F60008F929F92AF92BF92CF92DF92EF92FF92B9
:100F70000F931F93CF93DF93CDB7DEB7A0970FB634
:100F8000F894DEBF0FBECDBF60E088E192E00E9422
:100F900025037C01809118028111B9C0809116024D
:100FA00090911702009741F420911D0230911E028A
:100FB00030930902209308020196909317028093C0
:100FC00016028039914008F4A6C060910802709121
:100FD000090240E085E491E00E942A0C60E285E489
:100FE00091E00E94A90C40E0B70185E491E00E94E5
:100FF0002A0C60E285E491E00E94A90CC0901902DD
:10100000D0901A02E0901B02F0901C02C114D1048F
:10101000E104F10409F441C0B701A601F7FE07C0DD
:1010200044275527BA014C195D096E097F09142F11
:10103000E52FCB01712CFAE08F2E912CA12CB12C35
:10104000A6EF6A2E612F7E2FA50194010E94450D07
:1010500001E0070D105D629E100D1124E1E0F0E04B
:10106000EC0FFD1FE70DF11D108321153105410522
:10107000510529F0702E122FE32FCA01E3CF802FE4
:10108000F7FE0EC002E0070DE1E0F0E0EC0FFD1FFF
:10109000E80FF11D8DE2808303C080E3898301E0C6
:1010A000002351F0FE01E00FF11D608187E691E021
:1010B0000E94120C0150F4CF8091C1008062809395
:1010C000C10060E285E491E00E94A90C6AE085E439
:1010D00091E00E94A90C60E070E080E090E00E9446
:1010E000ED0AA0960FB6F894DEBF0FBECDBFDF911C
:1010F000CF911F910F91FF90EF90DF90CF90BF9015
:10110000AF909F908F907F906F900C9400061092FC
:1011100017021092160281E0E8168CE0F8063CF403
:10112000E11424E0F20634F080E098E005C080E0AD
:1011300094E002C080E09CE0E81AF90A80911D0268
:1011400090911E026701C81AD90AB701882777FD56
:101150008095982F8090190290901A02A0901B02FF
:10116000B0901C02680D791D8A1D9B1D60931902A9
:1011700070931A0280931B0290931C022091070126
:1011800030910801442737FD4095542F0E94450DAA
:1011900049015A012091050130910601C29EC0010A
:1011A000C39E900DD29E900D112460910301709109
:1011B00004010E940F0D9B01280D391D40910A0169
:1011C0004E9DC0014F9D900D11246091090170E06A
:1011D0000E940F0D260F371F80910101909102018F
:1011E000821793074CF044275527481B590B2417A7
:1011F00035071CF49A0101C09C01BC0137FF03C0F4
:10120000820F931F02C0621B730B0E94ED0AF092C3
:101210001E02E0921D02A0960FB6F894DEBF0FBE2C
:10122000CDBFDF91CF911F910F91FF90EF90DF9095
:10123000CF90BF90AF909F908F907F906F900895C8
:10124000CF93DF93CDB7DEB7EA970FB6F894DEBF42
:101250000FBECDBF0E940F0760E085E00E940D0B1E
:1012600028E833E1DC010E94640D61507E4F8F4F0E
:101270009F4F2FEF33E040E050E00E94230DA3E0AA
:10128000B0E00E946B0D6F5F7F4F8F4F9F4F969521
:10129000879577956795AB0164E889EC91E049AF54
:1012A0005AAF0E94B20B49AD5AAD41155105E1F05C
:1012B000E0E02AE030E0CA01B9010E94FB0C11E035
:1012C0001E0F81E090E08C0F9D1F8E0F911DFC0181
:1012D000405D9AE0699F40191124408361157105B2
:1012E00031F0E12FAB01E7CF80E3898311E01123D7
:1012F00061F0FE01E10FF11D22E041E0608189EC27
:1013000091E00E94760B1150F2CF0E948406CE012C
:1013100081960E94DF09CE0101960E94DF0990911B
:10132000650180916601981731F1E0916501F0E067
:10133000EB5BFE4F6081809165018F5F803209F425
:1013400080E080936501CE0181960E94F10989A118
:10135000882329F390E003962FA930E082179307A2
:10136000F1F6CE0181960E943C0660E0CE018196A6
:101370000E94EB09D4CF199905C082E00E94F60BB8
:101380000E94BA061C9906C080E10E94F60B0E94DA
:101390000006C5CF80910001882361F01D99BFCF61
:1013A00080E20E94F60B8CE291E00E94FF0A0E940C
:1013B000F205B5CF0E94B9040E94AE07B0CFFC0180
:1013C00011821082178A168A0895FC011082178AEA
:1013D000168A61830895FC0161831082178A168A38
:1013E0000895FC0146894130D1F030F0423039F0A7
:1013F000433039F4618313C06F3FA9F410C0608398
:101400000EC0A42FB0E09D0122503109808190E0F0
:101410008217930744F0AE0FBF1F12976C934F5F74
:10142000468B81E0089580E00895FC01208131E041
:10143000320F3083FB013081FC01E20FF11D32835A
:101440000895CF93DF93FC01808191E0980F908302
:10145000DF01A80FB11DEB01298112962C938E5F3D
:101460008083E90FF11D88818283DF91CF910895F8
:10147000CF93DF93FC01DB01808191E0980F908393
:10148000EF01C80FD11D13962C9113972A8322E0E8
:10149000280F2083EF01C90FD11D12969C9112973E
:1014A0009A8393E0980F9083EF01C20FD11D11969C
:1014B0002C9111972A838C5F8083E90FF11D8C9109
:1014C0008283DF91CF910895FC01278931E0320FAB
:1014D000378BE20FF11D82810895FC012789DC0121
:1014E000A20FB11D12968C9190E0982F882732E0C0
:1014F000320F378B2F5FE20FF11D2281822B08956F
:101500000F931F93FC014789DC01A40FB11D1296B4
:101510006C91862F90E0A0E0B0E0982F8827772785
:10152000662721E0240FDF01A20FB11D12965C9106
:1015300022E0240FDF01A20FB11D12960C9110E0E2
:10154000102F0027222717FD2095322FA4E0A40F8B
:10155000A78B4D5FE40FF11D4281642B852B602B1F
:10156000712B822B932B1F910F910895FC01838582
:10157000882391F18285861301C0089562876623CE
:10158000F9F0108688EE93E09383828324EF31E0B4
:101590003583248320813181232BF1F021E02187C1
:1015A0002087978386838AE080938100818180935E
:1015B000890080818093880080918000806109C0CB
:1015C0001186108610928000109281008091800018
:1015D0008F7E8093800008950895CF93DF93EB0171
:1015E0000E94D700CE01DF91CF910C94C9006F9378
:1015F00064E06A95F1F76F910197C9F70895CF9369
:10160000DF93EC01209731F088EE93E00E94F70A17
:101610002197F8CFDF91CF910895F89490E0880F4B
:10162000991FFC01E252FE4F208131812115344087
:1016300021F478940000F894F7CF208131817894D8
:101640000000662339F1FC01E653FE4F40815181D1
:10165000FC01EC52FE4F80819181481B590B81F0B7
:1016600080819181D901A81BB90B28EE33E00E943B
:10167000640D9A01442737FD4095542F0E94450D73
:10168000213084E0380714F020E034E037FF02C056
:1016900020E030E0C90108950F931F93CF93DF93AB
:1016A0001AB157985A98289AC4ECD9E081E090E092
:1016B0000E94F70A5C9A81E090E00E94F70A09B163
:1016C0005C9881E090E00E94F70A5C9A81E090E0EB
:1016D0000E94F70A5C9807FF03C02197209731F713
:1016E0001AB9DF91CF911F910F910895DF92EF9278
:1016F000FF920F931F93CF93DF9300D0CDB7DEB748
:10170000E62E2A8349830E944C0B14B1D5B0FAB05F
:101710000BB1289849812A81442311F05A9A01C0BB
:101720005A9894B1926394B9579A213029F08E2D2A
:1017300082958F700E94D7018E2D8F700E94D701E5
:10174000FAB80BB914B9D5B80F900F90DF91CF91BB
:101750001F910F91FF90EF90DF90089521E040E0FE
:101760000C94760B22E040E00C94760BCF93DF9341
:10177000EC01529A209A549A8EE190E00E94FF0A5E
:1017800063E0CE010E94AE0B86E090E00E94FF0A6B
:1017900063E0CE010E94AE0B82E090E00E94FF0A5F
:1017A00063E0CE010E94AE0B82E090E00E94FF0A4F
:1017B00062E0CE010E94AE0B82E090E00E94FF0A40
:1017C00068E2CE010E94B20B68E0CE010E94B20B2B
:1017D00061E0CE010E94B20B66E0CE010E94B20B26
:1017E0006CE0CE01DF91CF910C94B20B93B19823B2
:1017F000E9F393B18923089592BD81BD60BD84E072
:101800008FBB82E08FBBF999FECF81B58F5F81BD21
:10181000089592BD81BD81E08FBB80B591B59F5F7A
:1018200091BD0895FC01EF59FF4F308121E0230F56
:10183000203609F420E0DC01A05ABF4F4C91241758
:1018400039F0DC01A30FB11D6C93208381E0089572
:1018500080E00895CF92DF92EF92FF920F931F9353
:10186000CF93DF93CDB7DEB7A1970FB6F894DEBF65
:101870000FBECDBF8C019B0161157105D1F137FF02
:1018800004C066277727621B730BE62E972FF12C77
:10189000EAE0F0E076EFC72E8E2DBF010E940F0D1B
:1018A000DD24D394DF0C80E38E0DC69E800D1124C1
:1018B000A1E0B0E0AC0FBD1FAF0DB11D8C93611561
:1018C000710521F0E62E972FFD2CE6CF8D2D37FFE9
:1018D0000BC062E0D62EDF0CE1E0F0E0EC0FFD1F64
:1018E000E80FF11D8DE28083780182E2E80EF11CA1
:1018F00005C080E38983DD24D394F6CFD41640F469
:1019000060E2C70149A30E94120C49A14150F6CFE1
:101910000E5D1F4FDD2049F0FE01ED0DF11D6081D0
:10192000C8010E94120CDA94F5CF8091C100806248
:101930008093C100A1960FB6F894DEBF0FBECDBF55
:10194000DF91CF911F910F91FF90EF90DF90CF909B
:101950000895DC01AD57BF4FFC01EE57FF4F2C91AE
:101960002F5F203609F420E030812317C1F38296DF
:101970000E94120C8091C10080628093C100089582
:101980000E946F0478940E94200910920502109220
:1019900007021092040284EC99E09093FD01809379
:1019A000FC0110920102109200021092FF011092AD
:1019B000FE0110926501109266011092C70110920B
:1019C000C8011092110280911102882359F00E94DF
:1019D000F8016093120270931302809314029093A3
:1019E000150208951092120210921302109214021E
:1019F000109215020895AA1BBB1B51E107C0AA1F34
:101A0000BB1FA617B70710F0A61BB70B881F991F9F
:101A10005A95A9F780959095BC01CD01089597FB43
:101A2000072E16F4009407D077FD09D00E94FB0C16
:101A300007FC05D03EF4909581959F4F08957095D1
:101A400061957F4F0895A1E21A2EAA1BBB1BFD01D1
:101A50000DC0AA1FBB1FEE1FFF1FA217B307E4078D
:101A6000F50720F0A21BB30BE40BF50B661F771FE5
:101A7000881F991F1A9469F76095709580959095C5
:101A80009B01AC01BD01CF010895052E97FB1EF40B
:101A900000940E945C0D57FD07D00E94230D07FCA7
:101AA00003D04EF40C945C0D5095409530952195E3
:101AB0003F4F4F4F5F4F089590958095709561957A
:101AC0007F4F8F4F9F4F08950E94840DB7FF089559
:101AD000821B930B08950E94840DA59F900DB49FC7
:101AE000900DA49F800D911D11240895B7FF0C94B3
:101AF0006B0D0E946B0D821B930B0895EE0FFF1F61
:101B00000590F491E02D0994A29FB001B39FC0010C
:101B1000A39F700D811D1124911DB29F700D811D19
:0A1B20001124911D0895F894FFCFE1
:101B2A0001FF0001003C00581B0502011F012801AA
:101B3A0031013A01747E7A33000102030406074632
:101B4A0061737420202020004E6F726D616C20201A
:101B5A0000536C6F77202020200050777220736129
:041B6A00766500009C
:00000001FF
