:100000000C9435000C945D000C945D000C945D0024
:100010000C945D000C945D000C945D000C945D00EC
:100020000C945D000C945D000C945D000C94340104
:100030000C945D000C945D000C945D000C945D00CC
:100040000C945D000C945D000C9445040C94990490
:100050000C945D000C9417020C945D000C945D00F0
:100060000C945D000C945D005C0C11241FBECFEF5E
:10007000D8E0DEBFCDBF11E0A0E0B1E0EAE1FAE1F7
:1000800002C005900D92A434B107D9F712E0A4E4A0
:10009000B1E001C01D92A831B107E1F710E0CAE656
:1000A000D0E004C02297FE010E94070DC836D10798
:1000B000C9F70E94570C0C940B0D0C94000083EFB1
:1000C0008093B00084BD82E08093B10085BD109222
:1000D000B4001092B30018BC17BC8AB188668AB904
:1000E000239A5D985E985B982B98089514BC1092A3
:1000F000B00015BC1092B100089597FF05C091950E
:100100008195910921E001C020E08F3F910519F010
:1001100014F08FEF90E0222319F018BC87BD0895EA
:1001200088BD17BC089597FF05C0919581959109E9
:1001300021E001C020E08F3F910519F014F08FEF0E
:1001400090E0222329F01092B4008093B300089528
:100150008093B4001092B300089520910B012223E4
:1001600041F09093100280930F0281E08093080287
:1001700008950C94930020910B01222341F0909359
:100180000E0280930D0281E08093070208950C9483
:100190007D00882319F0CB010C949300CB010C94C3
:1001A0007D008AE08093810010928B0010928A007B
:1001B000229A2A9808951092030210920202E0E80F
:1001C000F0E080818F7E808310928B0010928A00F5
:1001D000089595B1282F217030E0220F331F482F4A
:1001E000467068E0469FA0011124242B9D7C292B9A
:1001F00025B99BB188708295807F9F77892B8BB9B9
:100200005C9A81E090E00E94900A5C9881E090E026
:100210000C94900AF8946091F6017091F701809126
:10022000F8019091F90178940895F8941092F601EC
:100230001092F7011092F8011092F9017894089544
:100240008AE08093810084E08093890082EE80932D
:100250008800EFE6F0E0808182608083089510924C
:1002600080001092810008951F920F920FB60F9296
:1002700011240F931F932F933F934F935F936F938B
:100280007F938F939F93AF93BF93CF93DF93EF931E
:10029000FF938091F6019091F701A091F801B09140
:1002A000F9010196A11DB11D8093F6019093F7010C
:1002B000A093F801B093F90180910302882309F417
:1002C0003FC080910002909101028F3F2FEF920773
:1002D00009F08FC035C0809102028823B1F080916F
:1002E000FE019091FF01009711F48FEF9FEF909323
:1002F000010280930002809180008F7E80938000B5
:1003000010928B0010928A0015C08091FC01909190
:10031000FD01909301028093000280918000806132
:10032000809380008091FB0180938B008091FA0183
:1003300080938A008091020291E0892780930202D3
:100340008091060281115EC081E080930602C0E0C8
:10035000D0E08C2FAE01495F5D4FFA019081992367
:1003600009F43FC09E01220F331FD901A35FBD4F87
:100370000D911C911197F901E75FFD4F608171812B
:100380000617170719F4FA0110822BC00D90BC91C3
:10039000A02D6081718141E050E0A617B70711F4EC
:1003A00040E050E0F901E35FFD4F60817181F901A8
:1003B000E75FFD4F20813181621773071CF451956F
:1003C00041955109FE01EE0FFF1FE75FFD4F2081B0
:1003D0003181240F351F31832083608171810E9418
:1003E000C9002196C230D10509F0B3CF10920602A0
:1003F00009C001979093010280930002892B09F4B0
:100400006ACF9ECFFF91EF91DF91CF91BF91AF91D6
:100410009F918F917F916F915F914F913F912F911C
:100420001F910F910F900FBE0F901F9018951F9264
:100430000F920FB60F9211242F933F934F935F9318
:100440006F937F938F939F93AF93BF93EF93FF939C
:10045000809111028823B9F12091780030917900C0
:10046000932F80E0822B20911202E22FF0E0EE0F1A
:10047000FF1FE851FE4F918380832F5F209312026C
:100480002730C1F41092120220910402222361F15C
:100490008F3822E0920718F527C08091040281115D
:1004A00028C008C08E389240A0F104C08091040298
:1004B0008823A1F1E0911202F0E0E45FFE4F808119
:1004C000806480937C008091110291E08927809361
:1004D000110280917A00806480937A0035C0809107
:1004E00005028111DACFE6CF209104022111E2CF7B
:1004F000D9CF10920402109203021092020280914E
:1005000080008F7E8093800010928B0010928A0072
:10051000D1CF809105028111C9CFCCCF81E08093EA
:1005200004021092020288EE93E09093FD01809302
:10053000FC0184EF91E09093FF018093FE018AEF2C
:1005400091E00E94740AB6CFFF91EF91BF91AF91F5
:100550009F918F917F916F915F914F913F912F91DB
:100560000F900FBE0F901F9018951092D50110920A
:10057000D40180E094E09093DF018093DE0110923B
:10058000D7011092D6019093E1018093E00110927F
:10059000D9011092D8019093E3018093E201109267
:1005A000DB011092DA019093E5018093E40110924F
:1005B000DD011092DC019093E7018093E60108953C
:1005C0008F929F92AF92BF92CF92DF92EF92FF9263
:1005D0000F931F93CF93DF93CDB7DEB764970FB61A
:1005E000F894DEBF0FBECDBF912C28C060E0882DEF
:1005F0000E94A60A992069F0D7012D913C912817F5
:1006000039073CF0F801208131818217930734F0DB
:1006100008C0D7018D939C939110F4CFF80191837A
:10062000808383940E5F1F4FF2E0EF0EF11C85E094
:100630008812DCCF9394AAE09A1671F0AA24A394AE
:10064000B12CAC0EBD1E8BE0C82ED12CCC0EDD1E05
:1006500076018501812CCACF80E090E0F5012191DF
:1006600031915F01FC01EE0FFF1FDF01AC52BE4F65
:100670004D915C911197421753071CF411963C93CE
:100680002E93D6012D913D916D01E252FE4F408196
:1006900051812417350714F4318320830196853066
:1006A0009105E1F664960FB6F894DEBF0FBECDBF9C
:1006B000DF91CF911F910F91FF90EF90DF90CF903E
:1006C000BF90AF909F908F900895CF930E94B502F6
:1006D000CCEEC83228F068ED7FEF88E290E004C0ED
:1006E00068E270E088ED9FEF0E946A0A0E94E002D3
:1006F00084E190E00E94980ACF5FCC3351F760E02C
:1007000070E080E090E0CF910C946A0A2F923F92C3
:100710004F925F926F927F928F929F92AF92BF9211
:10072000CF92DF92EF92FF920F931F93CF93DF93BD
:100730001F92CDB7DEB7262E009721F48E010F5FF2
:100740001F4F01C08C01D8011C92812C912C5401A7
:10075000612C712CC12CD12C7601312C412C24E040
:10076000522E61E0832D0E94A60AFC01222021F076
:10077000C2018E1B9F0BFC01E93CF10524F081E0D6
:10078000D8018C9303C0E333F1055CF0DF01A501D0
:1007900094010E948B0CC60ED71EE81EF91E6E0E29
:1007A0007F1E3394B4E09B0EA11CB11CE5E03E1209
:1007B000D8CFD8018C9181110AC0809113029091F9
:1007C00014028115984084F460E070E00FC093013A
:1007D00040E050E0C701B6010E94BB0CB901309364
:1007E00014022093130202C060E070E1CB010F906D
:1007F000DF91CF911F910F91FF90EF90DF90CF90FD
:10080000BF90AF909F908F907F906F905F904F9030
:100810003F902F9008958FE380937E008FED80931B
:100820007A0010927B0080E480937C0088B18F6313
:1008300088B980E094E09093E9018093E801909377
:10084000EB018093EA019093ED018093EC0190938A
:10085000EF018093EE019093F1018093F00190936A
:10086000F3018093F2019093F5018093F4010C94CD
:10087000B50210927A00089583ED91E00C94550B27
:1008800061E083ED91E00C944D0B1F920F920FB637
:100890000F9211242F933F934F935F936F937F9306
:1008A0008F939F93AF93BF93EF93FF939091C60065
:1008B00080911502E82FF0E0ED5EFE4F208192134B
:1008C00014C08F5F80931502843089F40E947600F3
:1008D00061E083ED91E00E944D0BF89488E18093F4
:1008E000600088E080936000FFCF10921502E091D5
:1008F00070018E2F8F5F803209F480E020916F01AC
:10090000821731F0F0E0E15BFE4F9083809370013D
:10091000FF91EF91BF91AF919F918F917F916F91D7
:100920005F914F913F912F910F900FBE0F901F90AD
:1009300018951F920F920FB60F9211248F939F93C9
:10094000EF93FF939091D1018091D201981789F094
:10095000E091D101F0E0EF58FE4F90818091D101FC
:100960008F5F803609F480E08093D1019093C600B8
:1009700005C08091C1008F7D8093C100FF91EF91F0
:100980009F918F910F900FBE0F901F90189584B17B
:100990008D7C84B985B1826385B9089585B18D7CDC
:1009A00085B908950E9420010E94D1000E945F0035
:1009B0000E940B040E943C0482E08093C00086E009
:1009C0008093C2001092C50080E48093C40088E93F
:1009D0008093C1000C94C7040E942F010E94DB0089
:1009E0000E94760010927A000E9440041092C1008A
:1009F0001092C0001092C2000C94CE040F931F936B
:100A0000CF93DF93E0914401F0E0EE0FFF1FE95E2A
:100A1000FE4F0081118160EC83ED91E00E944D0B4F
:100A2000E80106C022E041E083ED91E00E94150B51
:100A300069916111F7CFDF91CF911F910F910895C7
:100A400080914401833001F50E940A012091010147
:100A5000309102012F3F310551F460327E4481050F
:100A6000910590F00E9415018AE590E009C0603A76
:100A700076488140910540F00E9415018FEF90E08B
:100A80009093020180930101089580914401813087
:100A900049F028F0823069F08330B9F40DC08FEF4F
:100AA00090E002C08CE890E09093020180930101F5
:100AB00010C080E590E0F8CF8FEF90E090930201B6
:100AC000809301010E94150104C0109244010E940C
:100AD00045056091440180E090E00E949B0B0C94DE
:100AE000FE04809144018F5F843018F480934401A8
:100AF00002C0109244010C9445056F927F929F9220
:100B0000AF92BF92CF92DF92EF92FF920F931F931B
:100B1000CF93DF9300D0CDB7DEB78C01612C712C61
:100B200020E0C12CD12C760168EF962E44E0F30131
:100B3000EE0FFF1F461518F0E252FE4F02C0E653BB
:100B4000FE4F408151815770662757FD6095762F83
:100B5000022E04C0440F551F661F771F0A94D2F758
:100B6000C42AD52AE62AF72A322F355FC8015C014C
:100B7000EFEFAE1ABE0A6C2D29833A830E949B0BBD
:100B8000CD2CDE2CEF2CFF24E7FCFA943A81385070
:100B9000C5012981383058F72D5F322F36953695AB
:100BA0003695832F90E00196080F191F399D200D6F
:100BB0001124FFEF6F1A7F0A4AE06416710409F0EE
:100BC000B5CF222399F06C2DC8010F900F90DF91C3
:100BD000CF911F910F91FF90EF90DF90CF90BF903A
:100BE000AF909F907F906F900C949B0B0F900F9005
:100BF000DF91CF911F910F91FF90EF90DF90CF90F9
:100C0000BF90AF909F907F906F9008950E94650372
:100C100081E080934E016AE281E090E00E949B0BAC
:100C200082E090E00C947D05809100018823F9F02A
:100C300084E690E00E94980A80914E01811102C0E2
:100C40000E9406061092000110924D0110924C0174
:100C5000109248011092490110924A0110924B01E2
:100C600010924601109245010E94150109C081E0D1
:100C70008093000160E070E080E090E00E946A0AEA
:100C80008091000180930B010895CF93DF93EC01D5
:100C90008981823029F0843071F18130E1F504C01E
:100CA000DF91CF910C941406CE010E94140A809318
:100CB0000A01CE010E94140A80930901CE010E940C
:100CC0001E0A9093080180930701CE010E941E0A1C
:100CD0009093060180930501CE010E941E0A909315
:100CE000040180930301CE010E941E0A9093020129
:100CF0008093010110C080910001882361F0CE0132
:100D00000E941E0A0E94AD00CE010E941E0ADF91C1
:100D1000CF910C94BB00DF91CF910895CF92DF92D9
:100D2000EF92FF920F931F93CF93DF9300E010E0B9
:100D3000C12CD12C7601EC0121960E94A80B90E0E9
:100D4000A0E0B0E0012E04C0880F991FAA1FBB1FAE
:100D50000A94D2F7C82AD92AEA2AFB2A185F1BC0AC
:100D6000E02FF0E0D701C6019770AA27BB27EE0F4E
:100D7000FF1F053018F4E252FE4F02C0E653FE4F4B
:100D8000918380837BE0F594E794D794C7947A9518
:100D9000D1F71B500F5F1B3018F7CE010A3058F205
:100DA000DF91CF911F910F91FF90EF90DF90CF9047
:100DB000089580E090E00E94A80B843018F480939E
:100DC000440102C01092440181E090E00E94A80B0F
:100DD0008A3239F482E090E00E948E0681E08093AE
:100DE0004E0108951F93CF93DF93EC016FEF8FE4D3
:100DF00091E00E94CC0B60E08FE491E00E94CC0B6C
:100E000068816F5F8FE491E00E94CC0B69818FE471
:100E100091E00E94CC0B10E009C0FE01E10FF11D32
:100E200062818FE491E00E94CC0B1F5F88811817CC
:100E3000A0F3DF91CF911F910895EF92FF920F934E
:100E40001F93CF93DF93CDB7DEB7A8970FB6F89473
:100E5000DEBF0FBECDBF98A38F8F7AA369A3FCA27C
:100E6000EBA260E0CE0101962DA33EA34FA358A7AD
:100E70000E949309BE01615E7F4FCE0101960E94E0
:100E8000D409BE016F5D7F4FCE0101960E94D40947
:100E90002DA13EA14FA158A5298F3A8F4B8F5C8F72
:100EA000BE01675E7F4FCE0101960E94ED091E8F45
:100EB0000D8FBE01635E7F4FCE0101960E94D40963
:100EC000BE016D5D7F4FCE0101960E94D409CE0117
:100ED00001960E94F206A8960FB6F894DEBF0FBEE8
:100EE000CDBFDF91CF911F910F91FF90EF900895AB
:100EF0004F925F926F927F928F929F92AF92BF922A
:100F0000CF92DF92EF92FF920F931F93CF93DF93D5
:100F1000CDB7DEB7A0970FB6F894DEBF0FBECDBF3A
:100F200060E087E491E00E9486034C0180914701D4
:100F30008111AFC08091450190914601009741F425
:100F400020914C0130914D013093170220931602ED
:100F5000019690934601809345018039914008F4B1
:100F60009CC0609116027091170240E08FE491E0FE
:100F70000E94E30B60E28FE491E00E94CC0B40E022
:100F8000B4018FE491E00E94E30B60E28FE491E012
:100F90000E94CC0B8090480190904901A0904A019A
:100FA000B0904B0181149104A104B104B1F1750119
:100FB0006401B7FE07C0CC24DD247601C818D90827
:100FC000EA08FB0800E09AE0492E512C612C712CB4
:100FD00016EF15C0C701B601A30192010E94DD0CF6
:100FE000E1E0F0E0EC0FFD1FE00FF11D8C2D805DC6
:100FF000129F800D112480830F5F69017A011C14F8
:101000001D041E041F0434F3B7FE14C0FE01E00FDC
:10101000F11D8DE281830F5F0DC080E3898301E0C4
:1010200009C0FE01E00FF11D608181E791E00E949F
:10103000B10B01500111F5CF8091C1008062809306
:10104000C10060E28FE491E00E94CC0B6AE08FE483
:1010500091E00E94CC0B60E070E080E090E00E94A4
:101060006A0AA0960FB6F894DEBF0FBECDBFDF911F
:10107000CF911F910F91FF90EF90DF90CF90BF9095
:10108000AF909F908F907F906F905F904F900C9457
:101090001406109246011092450188E0981A80913A
:1010A0004C0190914D015401A81AB90AB401882746
:1010B00077FD8095982FC0904801D0904901E0902D
:1010C0004A01F0904B016C0D7D1D8E1D9F1D60939C
:1010D00048017093490180934A0190934B012091FC
:1010E000070130910801442737FD4095542F0E9495
:1010F000DD0C69017A012091050130910601A29E63
:10110000C001A39E900DB29E900D11246091030129
:10111000709104010E94A70C9B012C0D3D1D409174
:101120000A01489DC001499D900D1124609109015B
:1011300070E00E94A70C260F371F8091010190914B
:101140000201821793074CF044275527481B590B7F
:10115000241735071CF49A0101C09C01BC0137FF1C
:1011600003C0820F931F02C0621B730B0E946A0AA6
:1011700090924D0180924C01A0960FB6F894DEBF7C
:101180000FBECDBFDF91CF911F910F91FF90EF90D8
:10119000DF90CF90BF90AF909F908F907F906F9097
:1011A0005F904F900895CF93DF93CDB7DEB7A297AE
:1011B0000FB6F894DEBF0FBECDBF0E94D90660E027
:1011C00085E00E94A60A28E833E1DC010E94790C40
:1011D00061507E4F8F4F9F4F2FEF33E040E050E044
:1011E0000E94BB0CA3E0B0E00E94800C6F5F7F4FB9
:1011F0008F4F9F4F9695879577956795AB0164E8DC
:1012000083ED91E049A35AA30E944D0B49A15AA135
:1012100041155105C9F010E02AE030E0CA01B901DA
:101220000E94930CE1E0F0E0EC0FFD1FE10FF11DD7
:10123000405D8AE0689F4019112440831F5FAB0125
:101240006115710559F70FC080E3898311E00BC068
:10125000FE01E10FF11D22E041E0608183ED91E0AC
:101260000E94150B11501111F3CF0E9445058E01FC
:101270000F5F1F4FC8010E948D0908C050E04D5FED
:101280005F4F2F8930E042175307E9F190916F01CA
:10129000809170019817F1F1E0916F01F0E0E15B4E
:1012A000FE4F608120916F012F5F203209F420E012
:1012B00020936F01C8010E949F0949814111DECF2F
:1012C000E5CF82E00E94950B0E9471051C9906C033
:1012D00080E10E94950B0E941406D8CF80910001F6
:1012E000882361F01D99D2CF80E20E94950B8CE299
:1012F00091E00E94980A0E940606C8CF0E9420052D
:101300000E947807C3CFC8010E944506C8010E9409
:101310009909BCCF1999DACFD4CFFC011182108280
:10132000178A168A0895FC011082178A168A61832B
:101330000895FC0111821082178A168A0895FC0113
:101340007689713049F028F0723049F0733059F4E1
:1013500008C06F3FD9F416C06230C0F413C0608378
:1013600011C061830FC0872F90E0AC01425051093A
:10137000208130E0241735074CF08E0F9F1FDC01D1
:1013800012976C937F5F768B81E0089580E00895DB
:10139000FC012081FB013081FC01E20FF11D328351
:1013A0002F5FFC0120830895CF93DF93FC01DB01C5
:1013B0008081EF01C80FD11D11969C9111979A83DE
:1013C000982F9F5F9083EF01C90FD11D9C919A8345
:1013D0008E5F8083DF91CF910895CF93DF93DC01FF
:1013E000FB018C91ED01C80FD11D93819A83982F39
:1013F0009F5F9C93ED01C90FD11D92819A83982F15
:101400009E5F9C93ED01C90FD11D91819A83982F06
:101410009D5F9C93ED01C90FD11D90819A838C5FD4
:101420008C93DF91CF910895FC019789DF01A90F7B
:10143000B11D12968C919F5F978B0895FC012789AF
:10144000DC01A20FB11D12969C9180E0322F3F5F0C
:10145000DF01A30FB11D12963C912E5F278BAC01CB
:10146000432B9A01C90108950F931F93CF93DF93E4
:10147000EC01AF89FC01EA0FF11D028110E020E0D0
:1014800030E0302F2227112700274A2F4F5FFC0121
:10149000E40FF11DB2814F5FFC01E40FF11D528199
:1014A00040E0662757FD6095762FEA2FED5FCE0F5F
:1014B000D11DEA81AC5FEC01AF8B0E2B2B2B042BE3
:1014C000152B262B372BB801C901DF91CF911F9126
:1014D0000F910895CF93DF93EB010E94BB00CE01E3
:1014E000DF91CF910C94AD00FC0180819181892B1B
:1014F000B1F081E08187808782819381009711F428
:101500008FEF9FEF97838683809180008061809327
:101510008000818180938B00808180938A00089570
:101520006F9364E06A95F1F76F910197C9F7089599
:10153000CF93DF93EC0105C088EE93E00E94900A00
:1015400021972097C9F7DF91CF910895F89490E003
:10155000880F991FFC01E851FE4F03C078940000EA
:10156000F8942081318121153440C1F3A081B181EB
:101570009D0178940000662369F1FC01EC52FE4F56
:1015800040815181FC01E252FE4F80819181481BD4
:10159000590B91F080819181A81BB90B28EE33E0A3
:1015A0000E94790C9A01442737FD4095542F0E94E0
:1015B000DD0C922F832F02C09A2F8B2F292F382FCB
:1015C000213084E0380714F020E034E037FF02C017
:1015D00020E030E0C90108950F931F93CF93DF936C
:1015E0001AB157985A98289AC4ECD9E081E090E053
:1015F0000E94900A5C9A81E090E00E94900A09B1F2
:101600005C9881E090E00E94900A5C9A81E090E012
:101610000E94900A5C9807FF02C0219739F71AB917
:10162000DF91CF911F910F910895DF92EF92FF927A
:101630000F931F93CF93DF9300D0CDB7DEB7E62E85
:101640002A8349830E94EC0A14B1D5B0FAB00BB1D9
:10165000289849812A81442311F05A9A01C05A9846
:1016600094B1926394B9579A213029F08E2D8295C6
:101670008F700E94E9008E2D8F700E94E900FAB8E9
:101680000BB914B9D5B80F900F90DF91CF911F917E
:101690000F91FF90EF90DF90089522E040E00C94CE
:1016A000150B21E040E00C94150BCF93DF93EC0178
:1016B000529A209A549A8EE190E00E94980A63E030
:1016C000CE010E94510B86E090E00E94980A63E0F0
:1016D000CE010E94510B82E090E00E94980A63E0E4
:1016E000CE010E94510B82E090E00E94980A62E0D5
:1016F000CE010E94510B82E090E00E94980A68E2BD
:10170000CE010E944D0B68E0CE010E944D0B61E0BE
:10171000CE010E944D0B66E0CE010E944D0B6CE0A5
:10172000CE01DF91CF910C944D0B93B19823E9F347
:1017300093B18923089592BD81BD60BD84E08FBBC4
:1017400082E08FBBF999FECF81B58F5F81BD08958F
:1017500092BD81BD81E08FBB80B591B59F5F91BD8A
:101760000895FC01EF59FF4F3081232F2F5F203662
:1017700009F420E0FC01E05AFF4F4081241751F0AA
:10178000FC01E30FF11D6083FC01EF59FF4F208343
:1017900081E0089580E00895DC01AD57BF4FFC0162
:1017A000EE57FF4F2C912F5F203609F420E0308157
:1017B0002317C1F382960E94B10B8091C100806211
:1017C0008093C1000895CF92DF92EF92FF920F9322
:1017D0001F93CF93DF93CDB7DEB7A1970FB6F894E1
:1017E000DEBF0FBECDBF8C01FB01309759F19B01CD
:1017F00077FF04C022273327261B370BD12CBAE0F2
:10180000EB2EF12C86EFC82E11C0C901B7010E9442
:10181000A70CA1E0B0E0AC0FBD1FAD0DB11D205D68
:10182000C69E200D11242C93D3949B0112161306EF
:1018300064F3F7FF14C0FE01ED0DF11D8DE281830D
:10184000D3940DC080E38983DD24D39408C060E283
:10185000C70149A30E94B10B49A1415004C07801BE
:1018600082E2E80EF11CD41690F309C0FE01ED0DE2
:10187000F11D6081C8010E94B10BDA9402C00E5DB7
:101880001F4FD110F3CF8091C10080628093C100BF
:10189000A1960FB6F894DEBF0FBECDBFDF91CF91FA
:1018A0001F910F91FF90EF90DF90CF9008950E94CD
:1018B000D20478940E94D308109203021092050279
:1018C0001092020282EE94E09093FB018093FA0161
:1018D0001092FF011092FE011092FD011092FC0186
:1018E00010926F01109270011092D1011092D201EA
:1018F00008950E94F90CB7FF0895821B930B089579
:101900000E94F90CA59F900DB49F900DA49F800D8F
:10191000911D11240895B7FF0C94800C0E94800C37
:10192000821B930B0895AA1BBB1B51E107C0AA1F82
:10193000BB1FA617B70710F0A61BB70B881F991F70
:101940005A95A9F780959095BC01CD01089597FB14
:10195000072E16F4009407D077FD09D00E94930C4F
:1019600007FC05D03EF4909581959F4F08957095A2
:1019700061957F4F0895A1E21A2EAA1BBB1BFD01A2
:101980000DC0AA1FBB1FEE1FFF1FA217B307E4075E
:10199000F50720F0A21BB30BE40BF50B661F771FB6
:1019A000881F991F1A9469F7609570958095909596
:1019B0009B01AC01BD01CF010895052E97FB16F4E4
:1019C000009407D057FD0DD00E94BB0C07FC09D036
:1019D0007EF490958095709561957F4F8F4F9F4FC6
:1019E000089550954095309521953F4F4F4F5F4F4B
:1019F0000895A29FB001B39FC001A39F01D0B29FE1
:101A0000700D811D1124911D0895EE0FFF1F05908B
:0A1A1000F491E02D0994F894FFCF43
:101A1A0001FF0001003C00581B05020100010203FE
:101A2A00040607747E7A331F01280131013A014600
:101A3A0061737420202020004E6F726D616C20202B
:101A4A0000536C6F7720202020005077722073613A
:041A5A0076650000AD
:00000001FF
